:100000000C9465000C948D000C948D000C948D0064
:100010000C948D000C948D000C948D000C948D002C
:100020000C948D000C948D000C948D000C948D001C
:100030000C948D000C948D000C948D000C948D000C
:100040000C94CD140C948D000C941E140C94F81385
:100050000C948D000C948D000C948D000C948D00EC
:100060000C948D000C948D000000000025002800E9
:100070002B0000000000240027002A0004040404D0
:100080000404040402020202020203030303030342
:10009000010204081020408001020408102001021F
:1000A000040810207C3C3E5E2B3D3F2F5B5D3B2CCB
:1000B0002A225C000000000800020100000304077F
:1000C0000000000000000000281711241FBECFEF21
:1000D000D8E0DEBFCDBF12E0A0E0B1E0E0EEF7E394
:1000E00002C005900D92A03EB107D9F725E0A0EE21
:1000F000B2E001C01D92AC3FB207E1F710E0C5E6E7
:10010000D0E004C02197FE010E945B19C436D107DC
:10011000C9F70E947F170C94EE1B0C940000DC01C1
:100120005996ED91FC915A973097B9F0838994894B
:10013000A589B6894285538564857585841B950B91
:10014000A60BB70B811520E89207A105B10538F081
:100150008FEF9FE7A0E0B0E0089580E090E0089581
:10016000CF93DF931F92CDB7DEB76983DC01ED91AA
:10017000FC910280F381E02D41E050E0BE016F5F11
:100180007F4F09950F90DF91CF9108950895FC015D
:10019000818D928D009711F00C94EB0B0895CF9305
:1001A000DF93EC01898D9A8D009739F481E090E01E
:1001B0009B838A8380E090E00BC0FC011382128253
:1001C0000E942C11E98DFA8D22813381232B71F746
:1001D000DF91CF910895EF92FF920F931F93CF93EA
:1001E000DF93CDB7DEB7A1970FB6F894DEBF0FBE91
:1001F000CDBF8B017A01FB016081718143E1CE01AA
:1002000001960E94D707EA8DFB8D3097C9F0858152
:100210008823B1F0B701CE0101960E94D9138A8DCF
:100220009B8D009741F00E947E0F8A8D9B8D0E94CE
:10023000F6191B8E1A8E8AE491E00E94C40714C03E
:1002400060E571E0CE014C960E94920AB801CE01A1
:100250004C960E94470ABC0183EE94E00E94D91399
:10026000CE014C960E94840A80E090E0A1960FB6E1
:10027000F894DEBF0FBECDBFDF91CF911F910F91DC
:10028000FF90EF9008958EBD00000DB407FEFDCFE6
:100290008EB508958FEF0C9443018CBD9DBD0895DC
:1002A000FC01DB0112968D919C91139793838283BD
:1002B0008EE191E09183808314968C9114978483CE
:1002C00015968C911597858316964D915D916D913C
:1002D0007C91199746835783608771871A964D9151
:1002E0005D916D917C911D974287538764877587D7
:1002F0001E964D915D916D917C91519746875787E0
:10030000608B718B52968C915297828B53964D9144
:100310005D916D917C915697438B548B658B768B59
:1003200057964D915D916D917C915A97478B508F67
:10033000618F728F5B968D919C915C97948F838F68
:100340000895EF92FF920F931F93CF93DF93EC01E9
:100350007B018A011B821A8288EE93E0A0E0B0E064
:100360008C839D83AE83BF8386E291E099838883EB
:100370008DE190E00E9461199A8F898F009779F042
:100380002DE1F701DC0101900D922A95E1F74CE097
:1003900050E0B801CE010C960E948E1B188EDF91A2
:1003A000CF911F910F91FF90EF9008952F923F9260
:1003B0004F925F926F927F928F929F92AF92BF9275
:1003C000CF92DF92EF92FF920F931F93CF93DF9321
:1003D00000D0CDB7DEB7FC018581882309F4D9C0F0
:1003E000848180FFD6C021E02A83438954896589AE
:1003F000768982859385A485B585481759076A074C
:100400007B0709F41A826F013A81832F90E0DE01A5
:1004100011964D013F01B6E06B0E711C892B09F45A
:100420007DC0D6011A964D915D916D917C911D977D
:100430005A01B1E0BB22F60125811A012B0189E0A6
:1004400056944794379427948A95D1F7838D948D49
:10045000223061F4FC01828D938DA48DB58DBC0199
:10046000CD01620D731D841D951D45C0DC011496E0
:100470001C9111501221A114B104D1F4111118C012
:10048000452B462B472B51F4F6018789908DA18D82
:10049000B28D86839783A087B1870AC04681578132
:1004A0006085718593010E943B16882309F471C011
:1004B000F601238D348D86819781A085B1850297C1
:1004C000A109B109AC01BD01F901058404C0440FC3
:1004D000551F661F771F0A94D2F786859785A089D6
:1004E000B189840F951FA61FB71FBC01CD01610FF5
:1004F000711D811D911DD60114962C9126FF14C0EB
:10050000009100011091010120910201309103013D
:10051000601771078207930751F506C0FA81FF2320
:10052000C1F1898190E037C040E00E9452158823D4
:1005300081F1F501EF51FD4FD401CF010196E8178C
:10054000F90719F021912D93FACFEFEF8E1A9E0A39
:10055000F60182859385A485B5850196A11DB11DFF
:1005600082879387A487B58780E090E057CF740196
:1005700001E010E09501AB01BC018091E104909194
:10058000E2040E942D10882321F0BFEF8B1A9B0AF2
:10059000DFCF8FEF9FEF0F900F90DF91CF911F91E3
:1005A0000F91FF90EF90DF90CF90BF90AF909F9012
:1005B0008F907F906F905F904F903F902F90089515
:1005C000FC01818D928D009711F00C94D6018FEF74
:1005D0009FEF0895EF92FF920F931F93CF93DF93B6
:1005E000CDB7DEB7A1970FB6F894DEBF0FBECDBF73
:1005F0008C017A01FA016081718141E0CE0101969E
:100600000E94D707EA8DFB8D309701F18581882301
:10061000E9F0CE0101960E948F00892B51F0CE01A6
:1006200001960E94E002682F83EE94E00E9451132D
:10063000F0CF8A8D9B8D0097E9F00E947E0F8A8D06
:100640009B8D0E94F6191B8E1A8E14C060E571E016
:10065000CE014C960E94920AB701CE014C960E94A0
:10066000470ABC0183EE94E00E94D913CE014C9658
:100670000E94840A6FE571E0C8010E94920AC801D5
:10068000A1960FB6F894DEBF0FBECDBFDF91CF911C
:100690001F910F91FF90EF9008950F931F93CF93A9
:1006A000DF93FC01818D928D0097B9F0EF010E94DC
:1006B000D6018C010F3F8FEF180791F0898D9A8D2D
:1006C000FC01428553856485758541505109610956
:1006D00071090E94290CC80105C080E090E002C0A9
:1006E0008FEF9FEFDF91CF911F910F9108954F9260
:1006F0005F926F927F928F929F92AF92BF92DF92A2
:10070000EF92FF920F931F93CF93DF93CDB7DEB796
:100710002C970FB6F894DEBF0FBECDBF8C017B01C6
:1007200064E671E083EE94E00E94C41310928D059C
:1007300010928B05109288051092870584E08093B3
:1007400086050E94C1144B015C01809186050E94C0
:100750000F0A61E0809186050E945014DFB6F8947C
:100760008091E002811124C0E6E8F0E08491EAE99A
:10077000F0E09491E82FF0E0EE0FFF1FEE58FF4FEE
:10078000A591B491EC91E92321F461E08AE00E9403
:1007900050148AE00E940F0A8CB580618CBD8CB524
:1007A00080648CBD8DE00E940F0A8BE00E940F0ACE
:1007B0008091E0028F5F8093E002DFBE82E580934C
:1007C00080051092810580918005909181050E949D
:1007D0004D015AE0D52E8FEF0E944301DA94D110DB
:1007E000FACF82E895E00E94900F20E030E0A90166
:1007F00060E082E895E00E94CB0FD82E80938C05B4
:1008000081E0D81649F00E94C11468197909613D48
:10081000774058F381E056C02AEA31E040E050E0EA
:1008200068E082E895E00E94CB0F82FF03C0D0927F
:100830008D0510C044E0D42E0E944A0180938C059F
:10084000DA94D110F9CF8A3A11F082E03BC082E00D
:1008500080938D0580918D05823021F0412C512CA3
:10086000320105C0412C512C612C30E4732E20E064
:1008700030E0A90167E382E895E00E94CB0FA30175
:10088000920169E282E895E00E94CB0F80938C058B
:10089000882349F00E94C11468197909613D7740A5
:1008A00030F388E00FC080918D05823001F520E0A3
:1008B00030E0A9016AE382E895E00E94CB0F88232B
:1008C00041F086E08093870582E895E00E94A60FBC
:1008D000B5C00E944A01807C803C19F483E080937B
:1008E0008D050E944A010E944A010E944A0182E845
:1008F00095E00E94A60F80E5809380051092810507
:1009000081E00E94E008882329F08091B1058823C6
:1009100041F094C080E00E94E008882309F48EC072
:10092000F4CF8091A505803109F582E08093B1056F
:100930001092C3051092C4051092C5051092C60509
:100940008091A6059091A705A0E0B0E025E0880F72
:10095000991FAA1FBB1F2A95D1F78093BF059093BB
:10096000C005A093C105B093C2051FC0803209F035
:1009700065C083E08093B1054091A8055091A90519
:100980006091AA057091AB054093C3055093C405CF
:100990006093C5057093C6052FEB35E08EE895E0B2
:1009A0000E94BF16882309F449C08EE895E0909311
:1009B000C8058093C70581E08093B0051092B20509
:1009C0001092B3051092B4051092B5051092B605B9
:1009D0001092B7051092B8051092B9051092BA0599
:1009E0001092BB051092BC051092BD051092BE0579
:1009F0006CE771E083EE94E00E94C413B701CE016E
:100A000007960E94890A6DE871E0CE0101960E9466
:100A1000920AAE01495F5F4FBE016F5F7F4FC80111
:100A20000E94EB007C01CE0101960E94840ACE0157
:100A300007960E94840AEF2829F407C086E991E00E
:100A40000E94C40781E090E024C06DE871E0CE010F
:100A500001960E94920AAE014F5F5F4FB801CE012E
:100A600007960E94EA028F819885892B19F400E08D
:100A700010E002C006EC10E0CE0107960E94840A46
:100A8000CE0101960E94840A81E090E0012B09F4D6
:100A900080E02C960FB6F894DEBF0FBECDBFDF917D
:100AA000CF911F910F91FF90EF90DF90BF90AF908B
:100AB0009F908F907F906F905F904F900895EF92EE
:100AC000FF920F931F93CF93DF93CDB7DEB762975B
:100AD0000FB6F894DEBF0FBECDBF8C017B016AEB71
:100AE00071E0CE0101960E94920ABE016F5F7F4FB6
:100AF000CE010D960E94890AB701CE0107960E9489
:100B0000890AAE01435F5F4FBE01695F7F4FF80105
:100B1000868197810E94EB008C01CE0107960E948E
:100B2000840ACE010D960E94840ACE0101960E948D
:100B3000840AC80162960FB6F894DEBF0FBECDBF1F
:100B4000DF91CF911F910F91FF90EF900895EF9259
:100B5000FF920F931F93CF93DF93CDB7DEB76F97BD
:100B60000FB6F894DEBF0FBECDBF8C017B01BC0178
:100B7000CE0101960E94890AF80166817781AE0153
:100B80004F5F5F4FCE0107960E94EA02CE010196A9
:100B90000E94840ABE01695F7F4FCE0143960E9486
:100BA000890AB701CE0143960E94470ABC01CE01D3
:100BB00049960E94890AB801CE0101960E94890ACD
:100BC00062EF71E0CE0101960E942E0ABC01CE01B7
:100BD0000D960E94890AAE01475E5F4FBE01635FBA
:100BE0007F4FF801868197810E94EB00CE010D9620
:100BF0000E94840ACE0101960E94840ACE01499681
:100C00000E94840ACE0143960E94840AB801CE0154
:100C10000D960E94890A62EF71E0CE010D960E9446
:100C20002E0ABC01CE0143960E94890AF801668112
:100C30007781AE014D5E5F4FCE0101960E94EA02C0
:100C4000CE0143960E94840ACE010D960E94840A2A
:100C5000BE01695F7F4FCE010D960E94890AB701E0
:100C6000CE010D960E94470AFC01248135814D81F9
:100C70005E812417350729F58081918169817A8108
:100C8000009719F061157105B9F46115710559F0F6
:100C90002115310541F0FB01208130E0882799279B
:100CA000821B930B0BC0009771F0232B61F0FC01AA
:100CB0009081892F90E002C00E947E1B21E0892B49
:100CC00019F020E001C021E0CE010D962F8F0E9487
:100CD000840A2F8D222311F1BE016F5F7F4FCE0159
:100CE00043960E94890AB801CE010D960E94890A96
:100CF000AE014D5E5F4FBE01635F7F4FF80186819D
:100D000097810E94EB00CE010D960E94840ACE01CD
:100D100043960E94840A00E010E002C001E010E067
:100D2000CE0101960E94840ACE0107960E94840A91
:100D3000C8016F960FB6F894DEBF0FBECDBFDF912E
:100D4000CF911F910F91FF90EF900895EF92FF9236
:100D50000F931F93CF93DF9300D000D000D0CDB777
:100D6000DEB78C017B01BC01CE0101960E94890A8D
:100D7000B701CE0101960E94470A66EF71E00E941A
:100D80002E0ABC01C8010E945A0ACE0101960E9497
:100D9000840A80E090E026960FB6F894DEBF0FBE7E
:100DA000CDBFDF91CF911F910F91FF90EF900895EC
:100DB000EF92FF920F931F93CF93DF93CDB7DEB7E0
:100DC0002C970FB6F894DEBF0FBECDBF7C018B0110
:100DD00067EF71E0CE0101960E94920AD801149645
:100DE0008D919C911597892BC1F0ED91FC9180819B
:100DF000882399F0B801CE0107960E94890ABE01A6
:100E0000695F7F4FF701858196810E94A6068C015C
:100E1000CE0107960E94840A02C000E010E0CE01D5
:100E200001960E94840AC8012C960FB6F894DEBF82
:100E30000FBECDBFDF91CF911F910F91FF90EF902B
:100E400008950F931F930E94C1146093EB04709355
:100E5000EC048093ED049093EE04E091E304F091B0
:100E6000E4040680F781E02D83EE94E0099597FF76
:100E70001FC00E94C1140091EB041091EC0420915A
:100E8000ED043091EE04DC01CB01801B910BA20B31
:100E9000B30B0091E7041091E8042091E90430912C
:100EA000EA0480179107A207B307B8F28FEF9FEF0C
:100EB0001F910F9108950E94581B0F931F93CF937A
:100EC000DF93EC0188819981009729F02A813B8189
:100ED0002617370788F48B016F5F7F4F0E948E1AA9
:100EE000009761F0998388831B830A832C813D815D
:100EF000232B11F4FC01108281E001C080E0DF911E
:100F0000CF911F910F910895EF92FF920F931F932E
:100F1000CF93DF93FC01248135816115710511F4B4
:100F200080E019C041155105A9F07B01EC018A014F
:100F3000020F131FB8010E945D07882389F32881DF
:100F400039818C819D81B701820F931F0E94871B7D
:100F50001D830C8381E0DF91CF911F910F91FF9052
:100F6000EF900895CF93DF93EC01888199810097EA
:100F700011F00E94F619198218821D821C821B82B0
:100F80001A82DF91CF910895CF93DF93BC0183EE56
:100F900094E00E94C413EC0165EF71E083EE94E0ED
:100FA0000E94C4138C0F9D1FDF91CF9108952F9243
:100FB0003F924F925F926F927F928F929F92AF92E9
:100FC000BF92CF92DF92EF92FF920F931F93CF9336
:100FD000DF93CDB7DEB7C756D1090FB6F894DEBFA1
:100FE0000FBECDBF5C014B01A6964FAFA6973E0149
:100FF0008EE1680E711C6CEA75E0C3010E9450011D
:101000001C821B828EE191E09A8389831E82640197
:101010008E010F5F1F4F230118016FE270E0C601C0
:101020000E94731B009709F442C0F60120812F3201
:1010300021F4FFEFCF1ADF0AF0CF8C198D3008F0C2
:101040008CE0E82EF12CA701B601CE01885A9F4F03
:101050000E948E1BE8E5F0E0EC0FFD1FEE0DFF1D7A
:101060001082C8010E947E0FF8018581882351F00B
:101070001EAE1DAE8EE191E09CAF8BAF21961FAEF0
:10108000219721C021E0AE01485A5F4FB201C8014B
:101090000E94C70D882361F3CE0CDF1CC2010E94A1
:1010A0007E0F942D852D2801092F182FB6CFC6014C
:1010B00088199909A8969FAF8EAFA897B201CE0163
:1010C000CB960E945001A896EEADFFADA8978E0E6C
:1010D0009F1EF4018081811109C0BE01655C7F4FB4
:1010E000C1010E94500148EF51E04BC019A218A263
:1010F0008EE191E09F8F8E8F1BA221968FAD21975D
:10110000811113C0F5011382128288EE93E0A0E0F2
:10111000B0E084839583A683B78386E291E09183D0
:101120008083128E118E148630C08250A6962FAD09
:10113000A697A401823040F46CEA75E0C3010E94D6
:10114000C70D81110DC0DECFBE01655C7F4FC301AD
:101150000E94C70D8823B1F2CE01CB960E947E0F6C
:10116000A6968FADA697867039F049A95AA96BA9A2
:101170007CA9C3010E94290CB301C1010E94500146
:10118000A401B101C5010E94A101C501C959DF4FE8
:101190000FB6F894DEBF0FBECDBFDF91CF911F9188
:1011A0000F91FF90EF90DF90CF90BF90AF909F9006
:1011B0008F907F906F905F904F903F902F90089509
:1011C0008F929F92AF92BF92CF92DF92EF92FF9257
:1011D000CF93DF93C82F82E895E09093E204809349
:1011E000E104CC2369F1C53010F080E00DC140E08E
:1011F00060E070E0CB010E9452158823B1F320E13A
:10120000C29FC00111248F529D4FFC01E254FE4F3A
:1012100020812F7751F73C96408151816281738103
:10122000443651056105710500F33497C080D180C3
:10123000E280F380C114D104E104F10421F4D5CF9C
:10124000C12CD12C760140E0C701B6010E94521595
:10125000882359F28091EC029091ED028115924021
:1012600021F6A091F102AA2309F4BFCF6091EF0209
:101270007091F0026115710509F4B7CF2091EE026B
:10128000222309F4B2CFA093A0052093920580E019
:1012900030E0E1E0F0E0C82FAF01082E02C0440FBB
:1012A000551F0A94E2F72417350741F0982F8F5FF6
:1012B000983089F789E080939B0597CF80939B05B1
:1012C0002091F7023091F8022115310519F040E024
:1012D00050E008C0209105033091060340910703B8
:1012E00050910803209393053093940540939505FE
:1012F0005093960546015701860E971EA11CB11CFE
:101300008092A1059092A205A092A305B092A40597
:10131000E091F202F091F302F093A705E093A605A5
:10132000B0E00E949D1B860E971EA81EB91E8092DB
:10133000A8059092A905A092AA05B092AB0585E0F8
:10134000EE0FFF1F8A95E1F7E150FE4FEF2FFF27C9
:10135000E6958E0E9F1EA11CB11C80929C0590925A
:101360009D05A0929E05B0929F052091F4023091B8
:10137000F5022115310521F0A90160E070E008C0F7
:1013800040910103509102036091030370910403A3
:10139000D701C60188199909AA09BB09840F951FAD
:1013A000A61FB71F04C0B695A79597958795CA95B0
:1013B000D2F78093970590939805A0939905B093E1
:1013C0009A05853F2FE09207A105B10510F48CE046
:1013D00018C0853F9F4FA105B10510F480E111C0F1
:1013E00080910D0390910E03A0910F03B091100313
:1013F0008093A8059093A905A093AA05B093AB0587
:1014000080E28093A50581E0DF91CF91FF90EF907E
:10141000DF90CF90BF90AF909F908F90089590E015
:10142000FC01E057FF4F2491FC01E458FF4F8491E9
:10143000882399F090E0880F991FFC01EE58FF4F28
:10144000A591B491FC01E859FF4F859194918FB714
:10145000F894EC91E22BEC938FBF0895CF93DF9338
:10146000EC016115710561F0FB0101900020E9F7C5
:101470003197AF01461B570B0E948407811103C0AF
:10148000CE010E94B207CE01DF91CF910895CF9394
:10149000DF93EC01FB0144815581608171810E94E1
:1014A0008407811103C0CE010E94B207CE01DF91F3
:1014B000CF910895EF92FF920F931F93CF93DF93F5
:1014C000EC01FB0186179707B9F000811181011526
:1014D000110539F0E480F580B7010E945D078111A4
:1014E00004C0CE010E94B20707C0FD82EC82B801A1
:1014F000888199810E94871BCE01DF91CF911F9136
:101500000F91FF90EF900895FC01808191810C94E0
:10151000F619FC0111821082138212821582148244
:101520000C945A0AEF92FF920F931F93CF93DF937D
:10153000EC01198218821B821A821D821C8261159D
:10154000710521F18B01FB0101900020E9F7319732
:101550007F01E61AF70AB7010E945D07811109C0F1
:10156000CE01DF91CF911F910F91FF90EF900C94DE
:10157000B207FD82EC82B80188819981DF91CF9119
:101580001F910F91FF90EF900C94871BDF91CF91EB
:101590001F910F91FF90EF9008953F924F925F92AD
:1015A0006F927F928F929F92AF92BF92CF92DF9273
:1015B000EF92FF920F931F93CF93DF93CDB7DEB7D8
:1015C0002C970FB6F894DEBF0FBECDBF5C01DC01D7
:1015D0005B968D909C905C971696CD90DD90ED90EB
:1015E000FC901997C114D104E104F10439F0BFEF64
:1015F000CB1ADB0AEB0AFB0A312C07C0F401C080CE
:10160000D180E280F38033243394F4018185928584
:10161000A385B4859C01AD012F5F3F4F4F4F5F4FB6
:1016200029873A874B875C87260137011D821E82F6
:101630001F821886F40181859285A385B4852D814A
:101640003E814F815885281739074A075B0708F004
:1016500063C089859A85AB85BC858C159D05AE05D3
:10166000BF0550F482E0C82ED12CE12CF12C92E081
:10167000492E512C612C712C9E012F5F3F4FB701D9
:10168000A601C4010E943B16882309F445C0898144
:101690009A81AB81BC81892B8A2B8B2B41F026014F
:1016A00037019FEF491A590A690A790A05C0C4141B
:1016B000D504E604F70491F02D813E814F815885D1
:1016C0002F5F3F4F4F4F5F4F2D833E834F83588790
:1016D0003FEFC31AD30AE30AF30AACCF0FEF1FEFB1
:1016E0002FEF3FE0B301A201C4010E949B158823A4
:1016F00099F0D50116964D915D916D917C91199758
:10170000411551056105710549F093018201C4013C
:101710000E949B15811102C080E02AC0D501169657
:101720004D925D926D927C921997332051F0D301C6
:10173000C2010196A11DB11DF40180839183A28392
:10174000B383F5018789908DA18DB28D892B8A2B6A
:101750008B2B69F4D50157964D925D926D927C92D8
:101760005A9714968C911497806814968C9381E004
:101770002C960FB6F894DEBF0FBECDBFDF91CF9190
:101780001F910F91FF90EF90DF90CF90BF90AF909F
:101790009F908F907F906F905F904F903F900895B3
:1017A0000F931F93CF93DF93EB010E94C1148B0122
:1017B0000E944A018F3F49F00E94C114601B710BC7
:1017C0006C177D07A8F380E001C081E0DF91CF9125
:1017D0001F910F910895CF93DF93EC018D818823A2
:1017E000A1F18C8187FF2DC06E857F8588899989BD
:1017F00041E00E945215882341F1EA8980E2E89F86
:10180000F0011124DF01AF51BD4F1097F1F08D8130
:10181000823050F44B895C896D897E895C964D934A
:101820005D936D937C935F978F89988DA98DBA8D09
:10183000EF51FD4F938F828FB58BA48B8C818F7767
:101840008C83DF91CF910C94171580E0DF91CF91BD
:1018500008958F929F92AF92BF92CF92DF92EF92B4
:10186000FF920F931F93CF93DF93EC018D81811132
:1018700002C080E077C00B891C892D893E8904173E
:10188000150726073707A8F36A017B01823029F480
:10189000CA86DB86EC86FD860DC0C114D104E10446
:1018A000F10451F41E821F82188619861A861B863F
:1018B0001C861D8681E056C08A849B84AC84BD84CE
:1018C000EB8DFC8D258530E0275F3F4FB501A401EE
:1018D0004150510961097109022E04C0769567953E
:1018E000579547950A94D2F7D701C6010197A109E8
:1018F000B10904C0B695A795979587952A95D2F713
:1019000084179507A607B70720F089288A288B280F
:1019100049F44F89588D698D7A8D4E835F8368872E
:10192000798704C0841B950BA60BB70B4C015D0196
:101930008E010A5F1F4F81149104A104B10409F4C0
:10194000A7CF4E815F816885798598018B8D9C8DAD
:101950000E943B1691E0891A9108A108B1088111F3
:10196000EACF87CFDF91CF911F910F91FF90EF903A
:10197000DF90CF90BF90AF909F908F9008958F92FF
:101980009F92AF92BF92CF92DF92EF92FF920F930E
:101990001F93CF93DF9300D000D0CDB7DEB77C018B
:1019A00080E2689F6001112496012F513D4FD901BB
:1019B0001B969C91917121F0842F827409F097C03D
:1019C000142FF701628B8091000190910101A09189
:1019D0000201B091030186879787A08BB18BF60136
:1019E000EF51FD4F4489558960E070E0BA015527F9
:1019F0004427D70157964D935D936D937C935A97E7
:101A0000828D938DA0E0B0E0482B592B6A2B7B2B65
:101A1000D70157964D935D936D937C935A97D90157
:101A20001B968C91887159F4848D958DA68DB78DF8
:101A3000F701838B948BA58BB68B81E012C080312C
:101A400009F055C097012D5E3F4FD7015B968D91F0
:101A50009C915C970E94BF16882309F448C084E0DB
:101A6000F7018583812F8F70D70114968C9314977B
:101A7000F70116821782108611861A961D921D9202
:101A80001D921C921D9716FF34C015968C918130C3
:101A900071F511FF2CC0F701438954896589768956
:101AA000452B462B472B09F461C040E050E0BA01BA
:101AB000C7010E94290C8823D1F0F7018788908CF8
:101AC000A18CB28CC38CD48C82E090E0A0E0B0E01A
:101AD000F60180839183A283B3839E012F5F3F4FE2
:101AE000B501A401C6010E943B16811104C080E02B
:101AF0003DC081E03BC000E010E09801B501A401C9
:101B0000C6010E949B15882391F389809A80AB803F
:101B1000BC80D60157968C91803129F088EF9FEFD9
:101B2000AFEFBFE004C088EF9FEFA0E0B0E0881601
:101B30009906AA06BB0688F2D70157961D921D92F8
:101B40001D921C925A97F701138A148A158A168AD5
:101B5000848180688483C7010E94EB0B882339F25B
:101B600040E050E0BA01C7010E94290C0F900F908D
:101B70000F900F90DF91CF911F910F91FF90EF90F9
:101B8000DF90CF90BF90AF909F908F9008954F922D
:101B90005F926F927F92AF92BF92CF92DF92EF925D
:101BA000FF920F931F93CF93DF93CDB7DEB72B97A1
:101BB0000FB6F894DEBF0FBECDBF7C01CE010196FB
:101BC0006C01FC0190E28BE08C0D91938E13FDCFA4
:101BD000DA0130E047E09D91992339F19E3219F006
:101BE000E4EAF0E00AC04A3009F472C138E04AE0A1
:101BF000F2CF3196891709F46BC184918111F9CF25
:101C0000431708F465C18FED890F8E3508F060C168
:101C100081E0830FF601E30FF11D3FE9390F3A31FF
:101C200008F490529083382FD6CF8981803209F4FE
:101C30004FC1B22E8B01DB015B968D919C915C971D
:101C4000F701948F838F16961D921D921D921C9200
:101C50001997FB011286138614861586712CF801DC
:101C600082859385A485B58543895489658976895C
:101C700084179507A607B70708F061C025E0B69559
:101C8000A795979587952A95D1F7F82FFF706F2E16
:101C9000D80115968C91823008F41AC1C8010E94AF
:101CA000D60197FD15C1F80182859385A485B58578
:101CB0004F96A11DB11D82879387A487B587F0E257
:101CC0006F9EC0011124BC016F517D4F61157105DC
:101CD00009F4FEC0DB012C91222319F0253EC1F44A
:101CE00027C071100EC0F701628A40910001509127
:101CF0000101609102017091030146875787608B53
:101D0000718BFC01EF51FD4F8081811113C015C013
:101D10004BE050E0C6010E945D1B892B09F09FCF6C
:101D20008B2D8073803309F4D3C04B2D662DCCC02E
:101D30007720C9F27724739492CF772473948B2DF4
:101D40008271823109F0C4C07720D1F0D7011E968C
:101D50006D917D918D919C91519741E00E9452151A
:101D6000882309F4B5C0F7016289F0E26F9FB001E2
:101D700011246F517D4F6115710509F079C0A8C01C
:101D8000D80115968C91823009F4A2C0C8010E9436
:101D9000CD0A882309F49CC0D8015B96ED91FC9193
:101DA0005C9716964D905D906D907C901997B2E07F
:101DB0004B1A510861087108058404C0440C551C75
:101DC000661C771C0A94D2F786859785A089B1890D
:101DD000480E591E6A1E7B1EA480E1E04E1A51086F
:101DE00061087108AA2009F10E941715882309F4D7
:101DF0006FC0E1EEF2E0119224E0E13EF207D9F784
:101E0000D301C2018A0D911DA11DB11D8093000156
:101E100090930101A0930201B09303018091EA0520
:101E200081608093EA05AA94DDCFD8015B96ED919D
:101E3000FC915C9780E092E0A0E0B0E0058404C0F3
:101E4000880F991FAA1FBB1F0A94D2F7F801438974
:101E5000548965897689840F951FA61FB71F838BC8
:101E6000948BA58BB68BD70152961C9261EE72E0D3
:101E700080E2FB0111928A95E9F78BE0F601DB0124
:101E800001900D928A95E1F781E298E2DB0151968B
:101E90009C938E93509720E038E01F963C932E93AE
:101EA0001E9753969C938E93529759969C938E931C
:101EB000589757963C932E9356970E941715882350
:101EC00039F04B2DF7016289C7010E94BF0C01C098
:101ED00080E02B960FB6F894DEBF0FBECDBFDF912A
:101EE000CF911F910F91FF90EF90DF90CF90BF9017
:101EF000AF907F906F905F904F900895CF93DF9356
:101F0000EC010E94EB0B882311F01D8281E0DF9130
:101F1000CF9108958FB7F8948091E8058FBF089509
:101F2000CF93DF93EC018091E905811109C081E035
:101F30008093E90580918005909181050E944D0173
:101F400060E08C81DF91CF910C94501461E0FC0132
:101F500084810E9450148091E90581111092E90555
:101F60000895CF93DF93EC018E81882389F08F81D0
:101F700098859C012F5F3F4F38872F838230924096
:101F800018F40E944A01F3CFCE010E94A60F1E82D0
:101F9000DF91CF910895CF92DF92FF920F931F931D
:101FA000CF93DF9300D000D0CDB7DEB76C01F62E13
:101FB00029833A834B835C830E94B10FC6010E9440
:101FC000900F6CE271E0C6010E94D00B8F2D8064EF
:101FD0000E94430108E110E05C814B813A81298134
:101FE000DA01C901002E04C0B695A795979587958B
:101FF0000A94D2F729833A834B835C830E9443017E
:102000000850110929813A814B815C81083F8FEF8B
:10201000180731F7FF2029F0E8E0FE1204C087E836
:1020200003C085E901C08FEF0E94430110E00E94C8
:102030004A01F601828787FF04C01F3F11F01F5F2E
:10204000F6CF0F900F900F900F90DF91CF911F91CF
:102050000F91FF90DF90CF900895AF92BF92CF92F3
:10206000DF92EF92FF920F931F93CF93DF93EC01D8
:102070006901C801820F931F8130924008F070C03F
:102080008E81882371F088819981AA81BB8148174C
:1020900059076A077B0729F48F819885C816D906E6
:1020A000B0F5488359836A837B838B85833039F00D
:1020B00089E0440F551F661F771F8A95D1F79A0153
:1020C000AB0161E1CE010E94CB0F882319F083E0C0
:1020D0008D8346C00E94C1145B010E944A018A8719
:1020E0008F3F49F40E94C1146A197B096D32714017
:1020F000A0F38FE003C08E3F31F08DE08D83CE01E1
:102100000E94A60F2DC018861F8281E08E838F81CA
:1021100098858C159D0540F40E944A018F81988511
:10212000019698878F83F3CF6701E00EF11ECE14DE
:10213000DF0431F00E944A01F60181936F01F7CF6D
:102140008F819885080F191F18870F838985882329
:1021500019F00115124048F0CE010E94B10F05C0E0
:10216000CE010E94A60F80E001C081E0DF91CF91F7
:102170001F910F91FF90EF90DF90CF90BF90AF90A5
:102180000895EF92FF920F931F93CF93DF93EC018B
:102190007901411551056105710511F482E13CC0D9
:1021A0008B85833039F089E0440F551F661F771FF8
:1021B0008A95D1F79A01AB0168E1CE010E94CB0F5D
:1021C000882311F084E028C08EEF0E94430187012C
:1021D0008EEFF81AF80181918F010E9443010E15CC
:1021E0001F05C1F78FEF0E9443018FEF0E9443014B
:1021F0000E944A018A878F71853031F081E18D8399
:10220000CE010E94A60F09C068E572E0CE010E94CF
:10221000D00B811107C085E18D83CE010E94A60FEE
:1022200080E013C020E030E0A9016DE0CE010E9403
:10223000CB0F811104C00E944A01882311F084E170
:10224000EBCFCE010E94A60F81E0DF91CF911F91CD
:102250000F91FF90EF9008952F923F924F925F92CF
:102260006F927F928F929F92AF92BF92CF92DF92A6
:10227000EF92FF920F931F93CF93DF9300D000D084
:10228000CDB7DEB78C015B011A01DC0115968C918C
:1022900015978130C9F414968C9181FF15C082FF87
:1022A0001BC0F801438954896589768982859385A5
:1022B000A485B58584179507A607B70769F0C801F7
:1022C0000E94290C811108C081E090E0F8019383FD
:1022D000828380E090E039C1610183C0D8015B96C0
:1022E0008D919C915C97FC01248121502A013B0136
:1022F00039E076946794579447943A95D1F7722EC3
:1023000074207A01F1E0FF22772009F476C080E0A2
:1023100092E08E199F0946018C159D0508F44C0129
:10232000D8015B962D913C915C9716968D919D916D
:102330000D90BC91A02D0297A109B109F901058466
:1023400004C0880F991FAA1FBB1F0A94D2F74685A5
:10235000578560897189840F951FA61FB71F9C013F
:10236000AD01270D311D411D511D29013A01811477
:1023700032E0930609F088C080910001909101013C
:10238000A0910201B091030184159505A605B7053A
:1023900059F48FEF9FEFDC018093000190930101CE
:1023A000A0930201B09303019501B301A2018091B2
:1023B000E1049091E2040E94C110882309F484CFC3
:1023C0009EEFB91AC818D908F80182859385A485AB
:1023D000B585880D991DA11DB11D82879387A4879E
:1023E000B587D8011A964D915D916D917C911D979D
:1023F000C114D10409F072CF87C0E114F10409F0CF
:1024000086CF16964D915D916D917C9119974115EE
:1024100051056105710559F457968D919D910D9067
:10242000BC91A02D0097A105B10541F521C09E01E9
:102430002F5F3F4F0E943B16882309F44BCF8981C1
:102440009A81AB81BC81F801238D348DF9012789F4
:10245000203129F048EF5FEF6FEF7FE004C048EFD5
:102460005FEF60E070E084179507A607B70730F0CC
:10247000C8010E94CD0A81114ACF26CFF801868378
:102480009783A087B18743CFE114F10429F5D801E0
:102490001A964D915D916D917C911D9753968D91FA
:1024A0009D910D90BC91A02D481759076A077B0795
:1024B00098F00E941715882309F406CF4092000176
:1024C0005092010160920201709203018091EA052D
:1024D00081608093EA0508C041E0C301B2010E9417
:1024E0005215882309F4F0CED501F701EF51FD4FC5
:1024F000CF01880D991DE817F90719F02D91219347
:10250000FACFA80CB91C5ECF53968D919D910D907A
:10251000BC91A02D84179507A607B70740F4F801D2
:10252000438B548B658B768B848180688483D80140
:1025300014968C9183FD02C0C10107C0C8010E949E
:10254000EB0B882309F4C0CEF7CF0F900F900F90BC
:102550000F90DF91CF911F910F91FF90EF90DF903F
:10256000CF90BF90AF909F908F907F906F905F9033
:102570004F903F902F900895CF93DF931F92CDB748
:10258000DEB7698341E050E0BE016F5F7F4F0E947C
:102590002C110F90DF91CF910895CF92DF92EF929F
:1025A000FF920F931F93CF93DF936C017A018B01FE
:1025B000C0E0D0E0CE15DF0589F0D8016D918D0126
:1025C000D601ED91FC910190F081E02DC6010995B5
:1025D000892B11F47E0102C02196ECCFC701DF9157
:1025E000CF911F910F91FF90EF90DF90CF900895C2
:1025F000FC01918D828D981761F0828DDF01A80F0B
:10260000B11D5D968C91928D9F5F9F73928F90E02C
:1026100008958FEF9FEF0895FC01918D828D98179B
:1026200031F0828DE80FF11D858D90E008958FEFD8
:102630009FEF0895FC01918D228D892F90E0805CA1
:102640009F4F821B91098F739927089583EE94E021
:102650000E941A1321E0892B09F420E0822F0895AB
:10266000FC01848DDF01A80FB11DA35ABF4F2C912F
:10267000848D90E001968F739927848FA689B789FE
:102680002C93A089B1898C9180648C93938D848DD7
:10269000981306C00288F389E02D80818F7D8083A6
:1026A0000895EF92FF920F931F93CF93DF93EC0166
:1026B00081E0888F9B8D8C8D981305C0E889F989FE
:1026C000808185FD24C0F62E0B8D10E00F5F1F4F1B
:1026D0000F731127E02E8C8DE8120CC00FB607FC8B
:1026E000FACFE889F989808185FFF5CFCE010E9474
:1026F0003013F1CF8B8DFE01E80FF11DE35AFF4F30
:10270000F0820B8FEA89FB898081806207C0EE89A5
:10271000FF896083E889F98980818064808381E012
:1027200090E0DF91CF911F910F91FF90EF9008956E
:10273000CF93DF93EC01888D8823C9F0EA89FB8968
:10274000808185FD05C0A889B9898C9186FD0FC05F
:102750000FB607FCF5CF808185FFF2CFA889B98934
:102760008C9185FFEDCFCE010E943013E7CFDF9132
:10277000CF91089580E090E0892B29F00E942613E4
:1027800081110C94000008956115710579F0FB0129
:1027900001900020E9F73197AF01461B570BDC0190
:1027A000ED91FC910280F381E02D099480E090E0AE
:1027B00008950F931F93CF93DF93EC01E881F98184
:1027C000DB0114964D915C9115976D917C9102807F
:1027D000F381E02D09958C0165EF71E0CE010E9437
:1027E000C413800F911FDF91CF911F910F91089516
:1027F0001F920F920FB60F9211242F933F934F9376
:102800005F936F937F938F939F93AF93BF93EF9358
:10281000FF9383EE94E00E943013FF91EF91BF91FC
:10282000AF919F918F917F916F915F914F913F9168
:102830002F910F900FBE0F901F9018951F920F921F
:102840000FB60F9211242F938F939F93EF93FF93C3
:10285000E091F304F091F4048081E091F904F091A7
:10286000FA0482FD12C090818091FC048F5F8F7307
:102870002091FD04821751F0E091FC04F0E0ED514D
:10288000FB4F958F8093FC0401C08081FF91EF91F5
:102890009F918F912F910F900FBE0F901F901895C1
:1028A00090E0FC01EC54FF4F3491FC01E057FF4FE6
:1028B0002491FC01E458FF4FE491EE2309F43BC05E
:1028C000332339F1333091F038F43130A9F032301C
:1028D00001F584B58F7D12C0373091F03830A1F00A
:1028E0003430B9F4809180008F7D03C080918000E6
:1028F0008F77809380000DC084B58F7784BD09C029
:102900008091B0008F7703C08091B0008F7D80935D
:10291000B000F0E0EE0FFF1FE859FF4FA591B49112
:102920008FB7F894EC91611103C020952E2301C05C
:102930002E2B2C938FBF08953FB7F8948091F40508
:102940009091F505A091F605B091F70526B5A89BE5
:1029500005C02F3F19F00196A11DB11D3FBFBA2F31
:10296000A92F982F8827820F911DA11DB11DBC0191
:10297000CD0142E0660F771F881F991F4A95D1F756
:1029800008952FB7F8946091F0057091F10580914A
:10299000F2059091F3052FBF08951F920F920FB685
:1029A0000F9211242F933F938F939F93AF93BF93D5
:1029B0008091F0059091F105A091F205B091F30599
:1029C0003091EF0523E0230F2D3720F40196A11D50
:1029D000B11D05C026E8230F0296A11DB11D20934D
:1029E000EF058093F0059093F105A093F205B09365
:1029F000F3058091F4059091F505A091F605B0914D
:102A0000F7050196A11DB11D8093F4059093F5057E
:102A1000A093F605B093F705BF91AF919F918F9169
:102A20003F912F910F900FBE0F901F90189580919E
:102A3000EA058823A9F140910001509101016091BC
:102A400002017091030121EE32E08091E104909146
:102A5000E2040E94C110811102C080E008954091FB
:102A6000EB055091EC056091ED057091EE05411577
:102A700051056105710591F021EE32E08091E1048C
:102A80009091E2040E94C110882339F31092EB0563
:102A90001092EC051092ED051092EE051092EA05E9
:102AA00081E008958F929F92AF92BF92EF92FF9232
:102AB0000F931F93CF934B015C01C42F80910001B2
:102AC00090910101A0910201B0910301881599052F
:102AD000AA05BB0501F10E941715811102C080E013
:102AE00020C081EEE82E82E0F82E00E012E020E027
:102AF00030E0B501A4018091E1049091E2040E94CC
:102B00002D10882361F38092000190920101A09220
:102B10000201B09203018091EA05C82BC093EA0537
:102B200081E0CF911F910F91FF90EF90BF90AF90F8
:102B30009F908F9008954F925F926F927F928F92A5
:102B40009F92AF92BF92CF92DF92EF92FF920F933C
:102B50001F93CF93DF93EC016A017B0128013901B8
:102B6000423051056105710510F480E073C089851C
:102B70009A85AB85BC850196A11DB11D841795076B
:102B8000A607B70790F38B889C88AD88BE888F898D
:102B9000803129F4BB27AF2D9E2D8D2D09C0DB017F
:102BA000CA0147E0B695A795979587954A95D1F7BD
:102BB000880E991EAA1EBB1E8091000190910101F2
:102BC000A0910201B091030188169906AA06BB06DE
:102BD00079F48F898031A1F4DD24EE24FF24C6012D
:102BE000880F991FFC01EF51FD4F5182408219C09F
:102BF00040E0C501B4010E9452158111EACFB5CF62
:102C0000E894C7F8DD24EE24FF24C601880F991F3D
:102C1000880F991FFC01EF51FD4F40825182628263
:102C200073828091EA0581608093EA058A89823007
:102C300080F08D819E81AF81B885880E991EAA1E75
:102C4000BB1E8092EB059092EC05A092ED05B09230
:102C5000EE0581E0DF91CF911F910F91FF90EF90F2
:102C6000DF90CF90BF90AF909F908F907F906F90AC
:102C70005F904F9008958F929F92AF92BF92CF92A4
:102C8000DF92EF92FF920F931F93CF93DF93FC019C
:102C900081859285A385B4850196A11DB11D8417F8
:102CA0009507A607B70710F480E05CC08389948974
:102CB000A589B689C789C03129F4852E962EA72EFD
:102CC000BB2409C04A015B01C7E0B694A79497945E
:102CD0008794CA95D1F7E9016A017B018F01BC0194
:102CE000CD01680D791D8A1D9B1D8090000190907B
:102CF0000101A0900201B0900301681579058A05D1
:102D00009B0599F4F80187898031A9F4B701A601E0
:102D1000552766277727440F551FFA01EF51FD4FBE
:102D200080819181A0E0B0E018C040E00E9452157F
:102D30008111E8CFB9CFB701A6014F775527662794
:102D40007727440F551F440F551FFA01EF51FD4FD0
:102D500080819181A281B381BF7088839983AA8386
:102D6000BB8381E0DF91CF911F910F91FF90EF9096
:102D7000DF90CF90BF90AF909F908F9008954F922B
:102D80005F926F927F92AF92BF92CF92DF92EF925B
:102D9000FF920F931F93CF93DF9300D000D0CDB756
:102DA000DEB78C0149835A836B837C835901C12C24
:102DB000D12C7601412C82E0582E612C712C498156
:102DC0005A816B817C819E012F5F3F4FC8010E9419
:102DD0003B16882351F1D301C201F801058404C0D8
:102DE000880F991FAA1FBB1F0A94D2F7C80ED91EBD
:102DF000EA1EFB1E49815A816B817C818789803163
:102E000029F088EF9FEFAFEFBFE004C088EF9FEF9E
:102E1000A0E0B0E0481759076A077B0780F2F50188
:102E2000C082D182E282F38281E00F900F900F90F6
:102E30000F90DF91CF911F910F91FF90EF90DF9056
:102E4000CF90BF90AF907F906F905F904F9008951C
:102E5000E3EEF4E01382128288EE93E0A0E0B0E0AB
:102E600084839583A683B7832EE031E0318320836A
:102E700025EC30E03587248724EC30E0378726873F
:102E800020EC30E0318B208B21EC30E0338B228B37
:102E900022EC30E0358B248B26EC30E0378B268B10
:102EA000118E128E138E148EE0E8F5E020E520835B
:102EB0001182E2E8F5E0158216821186138642E05F
:102EC00050E060E070E0448755876687778713A2FB
:102ED00015A614A62EE131E033A722A717A6EDEC24
:102EE000F5E01382128284839583A683B78386E2FA
:102EF00091E091838083128E118E14860895CF9372
:102F0000DF93CDB7DEB72C970FB6F894DEBF0FBEB8
:102F1000CDBF789484B5826084BD84B5816084BD62
:102F200085B5826085BD85B5816085BD80916E0067
:102F3000816080936E001092810080918100826098
:102F400080938100809181008160809381008091D5
:102F500080008160809380008091B10084608093C4
:102F6000B1008091B00081608093B00080917A00C0
:102F7000846080937A0080917A00826080937A00E6
:102F800080917A00816080937A0080917A008068D5
:102F900080937A001092C100E091F304F091F40460
:102FA00082E08083E091EF04F091F0041082E091E0
:102FB000F104F091F2048FEC80831092FB04E09115
:102FC000F704F091F80486E08083E091F504F09135
:102FD000F604808180618083E091F504F091F6042D
:102FE000808188608083E091F504F091F60480810F
:102FF00080688083E091F504F091F60480818F7DF4
:1030000080830E949C146B017C010E949C14DC0153
:10301000CB018C199D09AE09BF09883E9340A105DB
:10302000B10598F38AEF91E00E94C40788E090E030
:103030000E9461198C018CE090E0F80191838083FB
:103040008BE090E0938382838DE090E0958384838E
:1030500084E090E09783868387E090E00E94611986
:103060007C01FC01148288E090E00E9461196C01EF
:1030700067EF71E00E94920A88E090E00E94611977
:103080005C0167EF71E00E94920AF50117830683E5
:10309000F601B782A682F701D682C5828AE090E067
:1030A0009183808389E090E09383828381E08483AD
:1030B000F092CC05E092CB056AE172E0CE01019678
:1030C0000E94920ABE016F5F7F4FC8010E94770382
:1030D0008C01CE0101960E94840A012B19F485E22D
:1030E00092E002C086E392E00E94C407E091CB0523
:1030F000F091CC050580F681E02D068117816DE801
:1031000071E0CE0101960E94920ABE016F5F7F4F6F
:10311000C8010E945F057C01CE0101960E94840ACD
:10312000EF2809F044C0BE01695F7F4FCE010196D0
:103130000E94890A67E472E0CE0101960E942E0A7D
:10314000BC01CE0107960E94890ACE0101960E9419
:10315000840ABE01695F7F4FCE0101960E94890AF1
:10316000BE016F5F7F4FC8010E945F057C01CE01E9
:1031700001960E94840ACE0107960E94840AEF28D5
:10318000B1F46AE472E0CE0101960E94920ABE0197
:103190006F5F7F4FC8010E94A7058C01CE01019689
:1031A0000E94840A012B19F489E692E002C081E8AA
:1031B00092E00E94C407E091CB05F091CC05058117
:1031C000168163E572E0CE0101960E94920ABE016B
:1031D0006F5F7F4FC8010E94A6067C01CE01019659
:1031E0000E94840AEF28B9F4B801CE0101960E942A
:1031F000890ABE016F5F7F4FF801868197810E9427
:10320000A7058C01CE0101960E94840A012B19F4B6
:1032100089E992E002C08BEA92E00E94C407009123
:10322000CB051091CC056AE472E0CE0101960E94B4
:10323000920ACE0101960E94840A6FE572E0CE01E7
:1032400001960E94920ABE016F5F7F4FC8010E94E3
:10325000D8068C01CE0101960E94840A012B19F434
:103260008DEB92E002C08EEC92E00E94C40767EF03
:1032700071E0CE0101960E94920A0E94210797FDFB
:103280000CC08F83188641E050E0BE01695F7F4F1C
:10329000CE0101960E948407F0CFBE016F5F7F4F81
:1032A0008091CB059091CC050E94D806CE01019665
:1032B0000E94840ADCCFEE0FFF1F0590F491E02DF1
:1032C0000994CF93DF938230910510F482E090E06F
:1032D000E091FA05F091FB0520E030E0C0E0D0E09D
:1032E000309711F14081518148175907C0F04817B4
:1032F000590761F482819381209719F09B838A8317
:103300002BC09093FB058093FA0526C0211531054B
:1033100019F04217530718F49A01BE01DF01EF01BB
:103320000280F381E02DDCCF2115310509F1281B46
:10333000390B2430310590F412968D919C9113979E
:103340006115710521F0FB019383828304C0909382
:10335000FB058093FA05FD01329644C0FD01E20FA2
:10336000F31F81939193225031092D933C933AC0DE
:103370002091F8053091F905232B41F420910601A5
:10338000309107013093F9052093F805209104014D
:10339000309105012115310541F42DB73EB740911B
:1033A000080150910901241B350BE091F805F091BB
:1033B000F905E217F307A0F42E1B3F0B2817390776
:1033C00078F0AC014E5F5F4F2417350748F04E0F81
:1033D0005F1F5093F9054093F8058193919302C0C4
:1033E000E0E0F0E0CF01DF91CF9108950F931F93BC
:1033F000CF93DF93009709F48CC0FC0132971382BE
:1034000012820091FA051091FB050115110581F456
:1034100020813181820F931F2091F8053091F905A9
:103420002817390779F5F093F905E093F80571C08D
:10343000D80140E050E0AE17BF0750F412962D912E
:103440003C911397AD012115310509F1D901F3CF55
:103450009D01DA013383228360817181860F971F7A
:103460008217930769F4EC0128813981260F371FF1
:103470002E5F3F4F318320838A819B819383828398
:10348000452B29F4F093FB05E093FA0542C013960F
:10349000FC93EE931297ED01499159919E01240FEF
:1034A000351FE217F30771F480819181840F951F16
:1034B000029611969C938E938281938113969C938E
:1034C0008E931297E0E0F0E0D80112968D919C91D6
:1034D0001397009719F0F8018C01F6CF8D919C910C
:1034E00098012E5F3F4F820F931F2091F805309176
:1034F000F9052817390769F4309729F41092FB056C
:103500001092FA0502C0138212821093F9050093FB
:10351000F805DF91CF911F910F910895A0E0B0E0E1
:10352000E4E9FAE10C94AC1BEC01009721F4CB0127
:103530000E946119B8C0FC01E60FF71F9C012250E0
:103540003109E217F30708F4ACC0D9010D911C91C1
:10355000119706171707B0F00530110508F49FC042
:10356000C80104978617970708F499C002501109FB
:10357000061B170B019311936D937C93CF010E944F
:10358000F6198DC05B01A01AB10A4C01800E911E84
:10359000A091FA05B091FB0540E050E0E12CF12C40
:1035A000109709F44AC0A815B905D1F56D907C9023
:1035B0001197630182E0C80ED11CCA14DB0480F1AC
:1035C000A3014A195B096A0182E0C80ED11C129658
:1035D000BC9012971396AC91B5E0CB16D10440F095
:1035E000B282A38351834083D9016D937C930AC037
:1035F0000E5F1F4FC301800F911FF90191838083DC
:10360000EB2DFA2FE114F10431F0D7011396FC935E
:10361000EE93129744C0F093FB05E093FA053FC088
:103620008D919C9111974817590708F4AC017D01C1
:1036300012960D90BC91A02DB3CF8091F80590917A
:10364000F90588159905E1F446175707C8F48091E4
:10365000040190910501009741F48DB79EB7409108
:10366000080150910901841B950BE817F907C8F46C
:10367000F093F905E093F805F901718360830FC0B9
:10368000CB010E9461197C01009759F0A801BE018D
:103690000E946A1BCE010E94F619C70104C0CE0128
:1036A00002C080E090E0CDB7DEB7EEE00C94C81B1E
:1036B00081E090E0F8940C94EE1BFB01DC0104C067
:1036C0008D910190801921F441505040C8F7881B1A
:1036D000990B0895FB01DC0102C001900D9241504D
:1036E0005040D8F70895FC018191861721F0882376
:1036F000D9F7992708953197CF010895FB01DC018F
:103700008D91019080190110D9F3990B0895FB0157
:10371000DC0101900D920020E1F70895FB01DC012E
:103720004150504048F001900D920020C9F701C06F
:103730001D9241505040E0F708950E94DF1BA59F65
:10374000900DB49F900DA49F800D911D112408959C
:103750002F923F924F925F926F927F928F929F92A1
:10376000AF92BF92CF92DF92EF92FF920F931F938F
:10377000CF93DF93CDB7DEB7CA1BDB0B0FB6F89440
:10378000DEBF0FBECDBF09942A88398848885F8480
:103790006E847D848C849B84AA84B984C884DF80F1
:1037A000EE80FD800C811B81AA81B981CE0FD11DD5
:1037B0000FB6F894DEBF0FBECDBFED010895A29FF6
:1037C000B001B39FC001A39F700D811D1124911DF5
:1037D000B29F700D811D1124911D0895F894FFCFA3
:1037E000FFFFFFFF0000FC058000000000005113F8
:1037F000CD121A13F8120C13981300000000BC121B
:10380000CD1200000000B000CF008F00E0024D0399
:10381000C700000000005B07CD125B075B075B077A
:103820005B07000000005B07CD12646F6E652E0021
:103830006572726F72206F70656E696E67200074BA
:1038400065737400496E697469616C697A696E6741
:1038500020534420636172642E2E2E0009534420AD
:10386000496E697469616C697A6564210074657375
:103870007446696C6500696E697469616C697A6126
:1038800074696F6E206661696C65642120284368E5
:1038900065636B2070696E732900546573745061A1
:1038A00072616D312C54657374506172616D322C8C
:1038B00054657374506172616D332C546573745028
:1038C0006172616D342C54657374506172616D3531
:1038D0000A005F74000D0A002F002A2A2A2A2A20D3
:1038E000456E746572696E672054657374204D6F00
:1038F00064653A202A2A2A2A2A007465737453744C
:1039000072696E67000950617373656420534420C7
:10391000546573747300094641494C45442053442F
:10392000205465737473005F31007465737444616F
:103930007461004167675465737444617461005435
:103940006573744461746132000950617373656416
:1039500020424253746F72616765205465737473BB
:1039600000094641494C454420424253746F7261FC
:1039700067652054657374730009506173736564DF
:103980002041676720546573747300094641494CB0
:103990004544204167672054657374730009506182
:1039A000737365642044482054657374730009463A
:1039B00041494C45442044482054657374730000C9
:00000001FF
