:100000000C9458000C9480000C9480000C94800098
:100010000C9480000C9480000C9480000C94800060
:100020000C9480000C9480000C9480000C94800050
:100030000C9480000C9480000C9480000C94800040
:100040000C943D0B0C9480000C940B0B0C94E50A63
:100050000C9480000C9480000C9480000C94800020
:100060000C9480000C948000000000002500280003
:100070002B00040404040404040402020202020229
:10008000030303030303010204081020408001025C
:1000900004081020010204081020000000080002DB
:1000A0000100000304070000000000000000870BAF
:1000B00011241FBECFEFD8E0DEBFCDBF11E0A0E01E
:1000C000B1E0EAE8FDE102C005900D92A635B10766
:1000D000D9F724E0A6E5B1E001C01D92AE36B20723
:1000E000E1F710E0C8E5D0E004C02197FE010E94CE
:1000F0007A0CC735D107C9F70E94DE0B0C94C30EEA
:100100000C940000CF92DF92EF92FF920F931F9317
:10011000CF93DF936C017A018B01C0E0D0E0CE1564
:10012000DF0589F0D8016D918D01D601ED91FC912B
:100130000190F081E02DC6010995892B11F47E0113
:1001400002C02196ECCFC701DF91CF911F910F9193
:10015000FF90EF90DF90CF900895FC01918D828DFC
:10016000981761F0828DDF01A80FB11D5D968C910B
:10017000928D9F5F9F73928F90E008958FEF9FEF16
:100180000895FC01918D828D981731F0828DE80FD2
:10019000F11D858D90E008958FEF9FEF0895FC018C
:1001A000918D228D892F90E0805C9F4F821B910959
:1001B0008F739927089587E693E00E94CF0021E08E
:1001C000892B09F420E0822F0895FC01848DDF0142
:1001D000A80FB11DA35ABF4F2C91848D90E00196BA
:1001E0008F739927848FA689B7892C93A089B189A9
:1001F0008C9180648C93938D848D981306C00288B3
:10020000F389E02D80818F7D80830895EF92FF92A6
:100210000F931F93CF93DF93EC0181E0888F9B8D29
:100220008C8D981305C0E889F989808185FD24C0EB
:10023000F62E0B8D10E00F5F1F4F0F731127E02E6E
:100240008C8DE8120CC00FB607FCFACFE889F9894B
:10025000808185FFF5CFCE010E94E500F1CF8B8D27
:10026000FE01E80FF11DE35AFF4FF0820B8FEA8980
:10027000FB898081806207C0EE89FF896083E889FD
:10028000F98980818064808381E090E0DF91CF9163
:100290001F910F91FF90EF900895CF93DF93EC01A2
:1002A000888D8823C9F0EA89FB89808185FD05C096
:1002B000A889B9898C9186FD0FC00FB607FCF5CFD0
:1002C000808185FFF2CFA889B9898C9185FFEDCF18
:1002D000CE010E94E500E7CFDF91CF91089580E045
:1002E00090E0892B29F00E94DB0081110C94000022
:1002F000089590E0FC01E656FF4F3491FC01EA5767
:10030000FF4F2491FC01EE58FF4FE491EE2309F4D6
:100310003BC0332339F1333091F038F43130A9F058
:10032000323001F584B58F7D12C0373091F038300E
:10033000A1F03430B9F4809180008F7D03C08091AA
:1003400080008F77809380000DC084B58F7784BD47
:1003500009C08091B0008F7703C08091B0008F7D7D
:100360008093B000F0E0EE0FFF1FE859FF4FA5911A
:10037000B4918FB7F894EC91611103C020952E23AE
:1003800001C02E2B2C938FBF08953FB7F894809116
:10039000610190916201A0916301B091640126B561
:1003A000A89B05C02F3F19F00196A11DB11D3FBFAD
:1003B000BA2FA92F982F8827820F911DA11DB11D3B
:1003C000BC01CD0142E0660F771F881F991F4A9537
:1003D000D1F708952FB7F89460915D0170915E0197
:1003E00080915F01909160012FBF089561E0FC0151
:1003F00084810E94790180915601811110925601E9
:1004000008958EBD00000DB407FEFDCF8EB5089592
:100410008FEF0C9401020F931F93CF93DF93EB01A7
:100420000E94EA018B010E9408028F3F49F00E945E
:10043000EA01601B710B6C177D07A8F380E001C017
:1004400081E0DF91CF911F910F910895CF93DF93BA
:10045000EC018E81882389F08F8198859C012F5F24
:100460003F4F38872F838230924018F40E94080251
:10047000F3CFCE010E94F6011E82DF91CF91089545
:10048000CF92DF92FF920F931F93CF93DF9300D011
:1004900000D0CDB7DEB76C01F62E29833A834B83AB
:1004A0005C830E9426028091560129813A814B810A
:1004B0005C81811109C081E0809356019091040410
:1004C000809105049CBD8DBD60E0F6018481298387
:1004D0003A834B835C830E9479016CE271E0C60130
:1004E0000E940B028F2D80640E94010208E110E03F
:1004F0005C814B813A812981DA01C901002E04C057
:10050000B695A795979587950A94D2F729833A834C
:100510004B835C830E9401020850110929813A81B2
:100520004B815C81083FFFEF1F0731F7FF2029F067
:1005300088E0F81204C087E803C085E901C08FEFA6
:100540000E94010210E00E940802F601828787FFE4
:1005500004C01F3F11F01F5FF6CF0F900F900F9058
:100560000F90DF91CF911F910F91FF90DF90CF906F
:100570000895AF92BF92CF92DF92EF92FF920F93C6
:100580001F93CF93DF93EC016901C801820F931F82
:100590008130924008F070C08E81882371F088818C
:1005A0009981AA81BB81481759076A077B0729F4FB
:1005B0008F819885C816D906B0F5488359836A8318
:1005C0007B838B85833039F089E0440F551F661F8C
:1005D000771F8A95D1F79A01AB0161E1CE010E94A4
:1005E0004002882319F083E08D8346C00E94EA010F
:1005F0005B010E9408028A878F3F49F40E94EA014A
:100600006A197B096D327140A0F38FE003C08E3F01
:1006100031F08DE08D83CE010E94F6012DC0188649
:100620001F8281E08E838F8198858C159D0540F413
:100630000E9408028F819885019698878F83F3CF57
:100640006701E00EF11ECE14DF0431F00E940802B3
:10065000F60181936F01F7CF8F819885080F191FDD
:1006600018870F838985882319F00115124048F0F7
:10067000CE010E94260205C0CE010E94F60180E054
:1006800001C081E0DF91CF911F910F91FF90EF901A
:10069000DF90CF90BF90AF900895EF92FF920F93AD
:1006A0001F93CF93DF93EC0179014115510561054B
:1006B000710511F482E13CC08B85833039F089E00B
:1006C000440F551F661F771F8A95D1F79A01AB011A
:1006D00068E1CE010E944002882311F084E028C026
:1006E0008EEF0E94010287018EEFF81AF8018191C6
:1006F0008F010E9401020E151F05C1F78FEF0E94A6
:1007000001028FEF0E9401020E9408028A878F7106
:10071000853031F081E18D83CE010E94F60109C060
:1007200068E572E0CE010E940B02811107C085E1ED
:100730008D83CE010E94F60180E013C020E030E0FE
:10074000A9016DE0CE010E944002811104C00E9407
:100750000802882311F084E1EBCFCE010E94F6015C
:1007600081E0DF91CF911F910F91FF90EF9008955D
:10077000CF93DF9380915701882399F1C091650150
:10078000D0916601409100015091010160910201F8
:100790007091030127E631E0CE010E944D038111E3
:1007A00002C080E01FC040915801509159016091F2
:1007B0005A0170915B01411551056105710579F090
:1007C00027E631E0CE010E944D03882351F31092B9
:1007D00058011092590110925A0110925B01109227
:1007E000570181E0DF91CF9108958F929F92AF9250
:1007F000BF92EF92FF920F931F93CF934B015C0137
:10080000C42F8091000190910101A0910201B0914B
:10081000030188159905AA05BB0501F10E94B803DB
:10082000811102C080E020C087E6E82E81E0F82E2A
:1008300000E012E020E030E0B501A4018091650104
:10084000909166010E94B902882361F380920001B1
:1008500090920101A0920201B09203018091570190
:10086000C82BC093570181E0CF911F910F91FF904A
:10087000EF90BF90AF909F908F9008954F925F92AE
:100880006F927F928F929F92AF92BF92CF92DF92A0
:10089000EF92FF920F931F93CF93DF93EC016A01C6
:1008A0007B0128013901423051056105710510F4C1
:1008B00080E073C089859A85AB85BC850196A11DB2
:1008C000B11D84179507A607B70790F38B889C88FE
:1008D000AD88BE888F89803129F4BB27AF2D9E2D2E
:1008E0008D2D09C0DB01CA0147E0B695A795979504
:1008F00087954A95D1F7880E991EAA1EBB1E809136
:10090000000190910101A0910201B09103018816AC
:100910009906AA06BB0679F48F898031A1F4DD24FB
:10092000EE24FF24C601880F991FFC01E959FE4FF0
:100930005182408219C040E0C501B4010E94F50314
:100940008111EACFB5CFE894C7F8DD24EE24FF2467
:10095000C601880F991F880F991FFC01E959FE4FA6
:1009600040825182628273828091570181608093BC
:1009700057018A89823080F08D819E81AF81B88550
:10098000880E991EAA1EBB1E809258019092590192
:10099000A0925A01B0925B0181E0DF91CF911F914B
:1009A0000F91FF90EF90DF90CF90BF90AF909F900E
:1009B0008F907F906F905F904F9008958F929F924D
:1009C000AF92BF92CF92DF92EF92FF920F931F935D
:1009D000CF93DF93FC0181859285A385B485019631
:1009E000A11DB11D84179507A607B70710F480E075
:1009F0005CC083899489A589B689C789C03129F4E7
:100A0000852E962EA72EBB2409C04A015B01C7E0A4
:100A1000B694A79497948794CA95D1F7E9016A018F
:100A20007B018F01BC01CD01680D791D8A1D9B1DC5
:100A30008090000190900101A0900201B09003010C
:100A4000681579058A059B0599F4F8018789803135
:100A5000A9F4B701A601552766277727440F551F2C
:100A6000FA01E959FE4F80819181A0E0B0E018C001
:100A700040E00E94F5038111E8CFB9CFB701A6018C
:100A80004F77552766277727440F551F440F551F6B
:100A9000FA01E959FE4F80819181A281B381BF7033
:100AA00088839983AA83BB8381E0DF91CF911F91D3
:100AB0000F91FF90EF90DF90CF90BF90AF909F90FD
:100AC0008F9008954F925F926F927F928F929F9234
:100AD000AF92BF92CF92DF92EF92FF920F931F934C
:100AE000CF93DF933C016B01DC0115968C91811152
:100AF00003C08FEF9FEFD5C0F301848180FFF9CF52
:100B000081E083889488A588B6884285538564856A
:100B1000758584169506A606B70609F480E090E070
:100B20002C014301B6E08B0E911CA0906501B090A2
:100B30006601892B09F480C0D3011A964D915D910D
:100B40006D917C911D97EA01D17015962C911597A6
:100B50007A018B0189E016950795F794E7948A95B9
:100B6000D1F75B968D919C915C97223061F4FC01EA
:100B7000828D938DA48DB58DBC01CD016E0D7F1D31
:100B8000801F911F46C0DC0114962C912150122F1A
:100B90001E212097E9F411111BC0452B462B472B32
:100BA00051F4F3018789908DA18DB28D868397834F
:100BB000A087B1870DC0D30116964D915D916D91BF
:100BC0007C91199794010E94DE04882309F491CF47
:100BD000F301238D348D86819781A085B18502979D
:100BE000A109B109F901058404C0880F991FAA1F42
:100BF000BB1F0A94D2F74685578560897189840F97
:100C0000951FA61FB71FBC01CD01610F711D811D6E
:100C1000911DD30114962C9126FF10C00091000164
:100C200010910101209102013091030160177107B9
:100C30008207930731F502C0C20133C040E00E9431
:100C4000F503882309F455CFC959DE4FF601CE01CB
:100C50000196C817D90719F029912193FACFEFEF20
:100C6000CE1ADE0AF30182859385A485B5850196A7
:100C7000A11DB11D82879387A487B58780E090E08E
:100C800058CF760101E010E09E01AB01BC01C50127
:100C90000E94B902882309F42CCFBFEFCB1ADB0ADC
:100CA000E1CFDF91CF911F910F91FF90EF90DF90F7
:100CB000CF90BF90AF909F908F907F906F905F90FC
:100CC0004F9008958F929F92AF92BF92CF92DF92F2
:100CD000EF92FF920F931F93CF93DF93EC018D81DF
:100CE000811102C080E077C00B891C892D893E8963
:100CF0000417150726073707A8F36A017B0182301E
:100D000029F4CA86DB86EC86FD860DC0C114D104A9
:100D1000E104F10451F41E821F82188619861A8696
:100D20001B861C861D8681E056C08A849B84AC8409
:100D3000BD84EB8DFC8D258530E0275F3F4FB501ED
:100D4000A4014150510961097109022E04C0769530
:100D50006795579547950A94D2F7D701C601019731
:100D6000A109B10904C0B695A795979587952A95CD
:100D7000D2F784179507A607B70720F089288A2895
:100D80008B2849F44F89588D698D7A8D4E835F8306
:100D90006887798704C0841B950BA60BB70B4C01A1
:100DA0005D018E010A5F1F4F81149104A104B104FB
:100DB00009F4A7CF4E815F816885798598018B8D75
:100DC0009C8D0E94DE0491E0891A9108A108B10867
:100DD0008111EACF87CFDF91CF911F910F91FF90C3
:100DE000EF90DF90CF90BF90AF909F908F9008953D
:100DF0003F924F925F926F927F928F929F92AF92AB
:100E0000BF92CF92DF92EF92FF920F931F93CF93F7
:100E1000DF93CDB7DEB72C970FB6F894DEBF0FBEC9
:100E2000CDBF5C01DC015B968D909C905C97169623
:100E3000CD90DD90ED90FC901997C114D104E104A0
:100E4000F10439F0BFEFCB1ADB0AEB0AFB0A312CB5
:100E500007C0F401C080D180E280F3803324339452
:100E6000F40181859285A385B4859C01AD012F5F36
:100E70003F4F4F4F5F4F29873A874B875C8726014B
:100E800037011D821E821F821886F401818592859A
:100E9000A385B4852D813E814F8158852817390758
:100EA0004A075B0708F063C089859A85AB85BC85D6
:100EB0008C159D05AE05BF0550F482E0C82ED12CDF
:100EC000E12CF12C92E0492E512C612C712C9E01C9
:100ED0002F5F3F4FB701A601C4010E94DE048823A3
:100EE00009F445C089819A81AB81BC81892B8A2B09
:100EF0008B2B41F0260137019FEF491A590A690AE5
:100F0000790A05C0C414D504E604F70491F02D81D4
:100F10003E814F8158852F5F3F4F4F4F5F4F2D834D
:100F20003E834F8358873FEFC31AD30AE30AF30A7D
:100F3000ACCF0FEF1FEF2FEF3FE0B301A201C401D1
:100F40000E943E04882399F0D50116964D915D913B
:100F50006D917C911997411551056105710549F015
:100F600093018201C4010E943E04811102C080E00D
:100F70002AC0D50116964D925D926D927C9219977A
:100F8000332051F0D301C2010196A11DB11DF4011E
:100F900080839183A283B383F5018789908DA18D8E
:100FA000B28D892B8A2B8B2B69F4D50157964D92E4
:100FB0005D926D927C925A9714968C9114978068EA
:100FC00014968C9381E02C960FB6F894DEBF0FBE7A
:100FD000CDBFDF91CF911F910F91FF90EF90DF90E8
:100FE000CF90BF90AF909F908F907F906F905F90C9
:100FF0004F903F900895CF93DF93FC01248127FF0A
:101000002EC0EC01668577858089918941E00E9438
:10101000F503882341F1EA8980E2E89FF001112479
:10102000DF01A959BE4F1097F1F08D81823050F445
:101030004B895C896D897E895C964D935D936D9338
:101040007C935F978F89988DA98DBA8DE959FE4F52
:10105000938F828FB58BA48B8C818F778C83DF915C
:10106000CF910C94B80380E0DF91CF9108952F9237
:101070003F924F925F926F927F928F929F92AF9228
:10108000BF92CF92DF92EF92FF920F931F93CF9375
:10109000DF9300D000D000D0CDB7DEB78C015B016C
:1010A0001A01DC0115968C9115978130C9F41496BC
:1010B0008C9181FF15C082FF1DC0F80143895489BE
:1010C0006589768982859385A485B585841795077A
:1010D000A607B70779F0C8010E94620681110AC00D
:1010E00081E090E0D80113969C938E93129780E054
:1010F00090E042C1610120916501309166013E831B
:101100002D8382C0D8015B968D919C915C97FC01E8
:1011100074802FEF270D2A013B0139E07694679404
:10112000579447943A95D1F7722E74207A01F1E0E2
:10113000FF22772009F474C080E092E08E199F09A5
:1011400046018C159D0508F44C01D8015B962D9144
:101150003C915C9716968D919D910D90BC91A02D20
:101160000297A109B109F901058404C0880F991FEC
:10117000AA1FBB1F0A94D2F74685578560897189DB
:10118000840F951FA61FB71F9C01AD01270D311DB0
:10119000411D511D29013A01811432E0930609F0E5
:1011A00086C08091000190910101A0910201B0914F
:1011B000030184159505A605B70559F48FEF9FEF38
:1011C000DC018093000190930101A0930201B09390
:1011D00003019501B301A2018D819E810E944D03FF
:1011E000882309F47DCF9EEFB91AC818D908F801F1
:1011F00082859385A485B585880D991DA11DB11D96
:1012000082879387A487B587D8011A964D915D91FF
:101210006D917C911D97C114D10409F073CF87C0E3
:10122000E114F10409F088CF16964D915D916D910E
:101230007C911997411551056105710559F457962F
:101240008D919D910D90BC91A02D0097A105B105A8
:1012500041F521C09E012F5F3F4F0E94DE0488238D
:1012600009F446CF89819A81AB81BC81F801238D35
:10127000348DF9012789203129F048EF5FEF6FEFB6
:101280007FE004C048EF5FEF60E070E084179507EF
:10129000A607B70730F0C8010E94F80681114CCFAD
:1012A0001FCFF80186839783A087B18745CFE114CC
:1012B000F10429F5D8011A964D915D916D917C91BB
:1012C0001D9753968D919D910D90BC91A02D48171F
:1012D00059076A077B0798F00E94B803882309F42E
:1012E000FFCE409200015092010160920201709283
:1012F00003018091570181608093570108C041E04C
:10130000C301B2010E94F503882309F4E9CED50197
:10131000F701E959FE4FCF01880D991DE817F9072C
:1013200019F02D912193FACFA80CB91C5ECF5396DA
:101330008D919D910D90BC91A02D84179507A607C6
:10134000B70740F4F801438B548B658B768B84810F
:1013500080688483D80114968C9183FD02C0C101FA
:101360000BC0F8018581882309F4BACEC8010E9418
:10137000FB078111F4CFB4CE26960FB6F894DEBFEA
:101380000FBECDBFDF91CF911F910F91FF90EF90D6
:10139000DF90CF90BF90AF909F908F907F906F9095
:1013A0005F904F903F902F900895CF93DF931F92BF
:1013B000CDB7DEB7698341E050E0BE016F5F7F4F7C
:1013C0000E9437080F90DF91CF910895FC01818D25
:1013D000928D009729F0FC01258121110C94FB07C7
:1013E0000895DC015996ED91FC915A973097B9F028
:1013F00083899489A589B6894285538564857585D5
:10140000841B950BA60BB70B811520E89207A1054D
:10141000B10538F08FEF9FE7A0E0B0E0089580E0DD
:1014200090E00895CF93DF931F92CDB7DEB7FC0114
:10143000818D928D009751F0BE016F5F7F4F0E94AA
:101440006205019719F4898190E002C08FEF9FEF48
:101450000F90DF91CF910895EF92FF920F931F931A
:10146000CF93DF931F92CDB7DEB7FC01818D928DB4
:10147000009701F17F01BE016F5F7F4F0E946205FF
:10148000019719F4098110E002C00FEF1FEF0F3F21
:101490008FEF180789F0F701818D928DFC0142854D
:1014A00053856485758541505109610971090E9410
:1014B000620602C000E010E0C8010F90DF91CF91FA
:1014C0001F910F91FF90EF900895CF93DF93EC0160
:1014D000898D9A8D009739F481E090E09B838A830F
:1014E00080E090E00BC0FC01138212820E9437085A
:1014F000E98DFA8D22813381232B71F7DF91CF9112
:101500000895CF93DF931F92CDB7DEB76983DC01D7
:10151000ED91FC910280F381E02D41E050E0BE01AD
:101520006F5F7F4F09950F90DF91CF9108950E94D3
:10153000770EEF92FF920F931F93CF93DF93EC01FF
:10154000198218821B821A821D821C826115710504
:10155000A9F17B01FB0101900020E9F731978F0190
:10156000061B170BB8016F5F7F4F80E090E00E9471
:10157000AD0D009759F0998388831B830A832C81D2
:101580003D81232B81F4FC0110820DC0888199815B
:10159000009711F00E94150D198218821D821C827D
:1015A0001B821A820BC01D830C83B701DF91CF9180
:1015B0001F910F91FF90EF900C94850EDF91CF91CA
:1015C0001F910F91FF90EF9008951F920F920FB609
:1015D0000F9211242F933F934F935F936F937F93B9
:1015E0008F939F93AF93BF93EF93FF9387E693E01F
:1015F0000E94E500FF91EF91BF91AF919F918F9174
:101600007F916F915F914F913F912F910F900FBEFE
:101610000F901F9018951F920F920FB60F921124E2
:101620002F938F939F93EF93FF93E0917703F09124
:1016300078038081E0917D03F0917E0382FD12C0EA
:101640009081809180038F5F8F7320918103821737
:1016500051F0E0918003F0E0E959FC4F958F8093C1
:10166000800301C08081FF91EF919F918F912F9115
:101670000F900FBE0F901F9018951F920F920FB6EC
:101680000F9211242F933F938F939F93AF93BF9308
:1016900080915D0190915E01A0915F01B091600128
:1016A00030915C0123E0230F2D3720F40196A11D1A
:1016B000B11D05C026E8230F0296A11DB11D209380
:1016C0005C0180935D0190935E01A0935F01B093F4
:1016D00060018091610190916201A0916301B091DC
:1016E00064010196A11DB11D809361019093620177
:1016F000A0936301B0936401BF91AF919F918F91CB
:101700003F912F910F900FBE0F901F901895E7E615
:10171000F3E01382128288EE93E0A0E0B0E08483CD
:101720009583A683B7832EE031E03183208325ECB7
:1017300030E03587248724EC30E03787268720EC9B
:1017400030E0318B208B21EC30E0338B228B22EC8C
:1017500030E0358B248B26EC30E0378B268B118ED6
:10176000128E138E148EE4E0F4E020E520831182C3
:10177000E6E0F4E0158216821186138642E050E01E
:1017800060E070E0448755876687778713A215A6C7
:1017900014A62EE131E033A722A717A6EFE4F4E068
:1017A0001382128284839583A683B78386E291E0B5
:1017B00091838083128E118E14860895789484B557
:1017C000826084BD84B5816084BD85B5826085BD3D
:1017D00085B5816085BD80916E00816080936E00CB
:1017E00010928100809181008260809381008091BD
:1017F000810081608093810080918000816080936E
:1018000080008091B10084608093B1008091B0002D
:1018100081608093B00080917A00846080937A0028
:1018200080917A00826080937A0080917A00816052
:1018300080937A0080917A00806880937A00109279
:10184000C100E0917703F091780382E08083E0911A
:101850007303F09174031082E0917503F0917603A5
:101860008FEC808310927F03E0917B03F0917C03E7
:1018700086E08083E0917903F0917A038081806132
:101880008083E0917903F0917A038081886080837E
:10189000E0917903F0917A03808180688083E09100
:1018A0007903F0917A0380818F7D80830E94C50146
:1018B0006B017C010E94C501DC01CB018C199D09E3
:1018C000AE09BF09883E9340A105B10598F34FE1E9
:1018D00050E062E371E087E693E00E94820042E01C
:1018E00050E062E571E087E693E00E9482000E948A
:1018F0006F01FDCFEE0FFF1F0590F491E02D0994CD
:10190000CF93DF938230910510F482E090E0E09174
:101910006C04F0916D0420E030E0C0E0D0E030973E
:1019200011F14081518148175907C0F048175907F4
:1019300061F482819381209719F09B838A832BC065
:1019400090936D0480936C0426C02115310519F025
:101950004217530718F49A01BE01DF01EF0102801C
:10196000F381E02DDCCF2115310509F1281B390B5E
:101970002430310590F412968D919C911397611546
:10198000710521F0FB019383828304C090936D0461
:1019900080936C04FD01329644C0FD01E20FF31FF9
:1019A00081939193225031092D933C933AC0209119
:1019B0006A0430916B04232B41F42091060130918D
:1019C000070130936B0420936A0420910401309145
:1019D00005012115310541F42DB73EB740910801AD
:1019E00050910901241B350BE0916A04F0916B04BE
:1019F000E217F307A0F42E1B3F0B2817390778F0E6
:101A0000AC014E5F5F4F2417350748F04E0F5F1F44
:101A100050936B0440936A048193919302C0E0E079
:101A2000F0E0CF01DF91CF9108950F931F93CF93F3
:101A3000DF93009709F48CC0FC0132971382128265
:101A400000916C0410916D040115110581F4208141
:101A50003181820F931F20916A0430916B04281703
:101A6000390779F5F0936B04E0936A0471C0D801EB
:101A700040E050E0AE17BF0750F412962D913C9114
:101A80001397AD012115310509F1D901F3CF9D015E
:101A9000DA013383228360817181860F971F821759
:101AA000930769F4EC0128813981260F371F2E5FD7
:101AB0003F4F318320838A819B8193838283452B8F
:101AC00029F4F0936D04E0936C0442C01396FC93E8
:101AD000EE931297ED01499159919E01240F351F04
:101AE000E217F30771F480819181840F951F0296AC
:101AF00011969C938E938281938113969C938E93DF
:101B00001297E0E0F0E0D80112968D919C91139726
:101B1000009719F0F8018C01F6CF8D919C919801F6
:101B20002E5F3F4F820F931F20916A0430916B0408
:101B30002817390769F4309729F410926D04109230
:101B40006C0402C01382128210936B0400936A0427
:101B5000DF91CF911F910F910895A0E0B0E0E3EBEA
:101B6000FDE00C94900EEC01009721F4CB010E9453
:101B7000800CB8C0FC01E60FF71F9C012250310910
:101B8000E217F30708F4ACC0D9010D911C9111972D
:101B900006171707B0F00530110508F49FC0C801FB
:101BA00004978617970708F499C002501109061B7D
:101BB000170B019311936D937C93CF010E94150D28
:101BC0008DC05B01A01AB10A4C01800E911EA0913C
:101BD0006C04B0916D0440E050E0E12CF12C1097C2
:101BE00009F44AC0A815B905D1F56D907C901197FC
:101BF000630182E0C80ED11CCA14DB0480F1A3018A
:101C00004A195B096A0182E0C80ED11C1296BC9089
:101C100012971396AC91B5E0CB16D10440F0B28286
:101C2000A38351834083D9016D937C930AC00E5FD7
:101C30001F4FC301800F911FF90191838083EB2D0A
:101C4000FA2FE114F10431F0D7011396FC93EE93CF
:101C5000129744C0F0936D04E0936C043FC08D91E3
:101C60009C9111974817590708F4AC017D01129611
:101C70000D90BC91A02DB3CF80916A0490916B041C
:101C800088159905E1F446175707C8F480910401B7
:101C900090910501009741F48DB79EB740910801DE
:101CA00050910901841B950BE817F907C8F4F093CC
:101CB0006B04E0936A04F901718360830FC0CB0168
:101CC0000E94800C7C01009759F0A801BE010E947F
:101CD0007C0ECE010E94150DC70104C0CE0102C0CA
:101CE00080E090E0CDB7DEB7EEE00C94AC0E81E082
:101CF00090E0F8940C94C30EFB01DC0102C001904B
:101D00000D9241505040D8F70895FB01DC0101903D
:101D10000D920020E1F708952F923F924F925F922B
:101D20006F927F928F929F92AF92BF92CF92DF92EB
:101D3000EF92FF920F931F93CF93DF93CDB7DEB750
:101D4000CA1BDB0B0FB6F894DEBF0FBECDBF0994E4
:101D50002A88398848885F846E847D848C849B843B
:101D6000AA84B984C884DF80EE80FD800C811B8149
:101D7000AA81B981CE0FD11D0FB6F894DEBF0FBE78
:0A1D8000CDBFED010895F894FFCFE8
:101D8A00FFFFFFFF00006E04800000000000060154
:101D9A008200CF00AD00C1004D0100000000D5094E
:101DAA00820000000000810A650AF109120A2C0A61
:101DBA00E6092A2A2A2A2A20456E746572696E67FC
:101DCA002054657374204D6F64653A202A2A2A2AA2
:061DDA002A000D0A0000C2
:00000001FF
